{
  "contractName": "NFTree",
  "abi": [
    {
      "inputs": [],
      "stateMutability": "nonpayable",
      "type": "constructor"
    },
    {
      "anonymous": false,
      "inputs": [
        {
          "indexed": true,
          "internalType": "address",
          "name": "owner",
          "type": "address"
        },
        {
          "indexed": true,
          "internalType": "address",
          "name": "approved",
          "type": "address"
        },
        {
          "indexed": true,
          "internalType": "uint256",
          "name": "tokenId",
          "type": "uint256"
        }
      ],
      "name": "Approval",
      "type": "event"
    },
    {
      "anonymous": false,
      "inputs": [
        {
          "indexed": true,
          "internalType": "address",
          "name": "owner",
          "type": "address"
        },
        {
          "indexed": true,
          "internalType": "address",
          "name": "operator",
          "type": "address"
        },
        {
          "indexed": false,
          "internalType": "bool",
          "name": "approved",
          "type": "bool"
        }
      ],
      "name": "ApprovalForAll",
      "type": "event"
    },
    {
      "anonymous": false,
      "inputs": [
        {
          "indexed": false,
          "internalType": "uint256",
          "name": "tokenId",
          "type": "uint256"
        },
        {
          "indexed": false,
          "internalType": "address",
          "name": "owner",
          "type": "address"
        },
        {
          "indexed": false,
          "internalType": "string",
          "name": "walletManagerId",
          "type": "string"
        },
        {
          "indexed": false,
          "internalType": "address",
          "name": "assetToken",
          "type": "address"
        },
        {
          "indexed": false,
          "internalType": "uint256",
          "name": "assetAmount",
          "type": "uint256"
        }
      ],
      "name": "ChopTree",
      "type": "event"
    },
    {
      "anonymous": false,
      "inputs": [
        {
          "indexed": false,
          "internalType": "uint256",
          "name": "tokenId",
          "type": "uint256"
        },
        {
          "indexed": false,
          "internalType": "address",
          "name": "owner",
          "type": "address"
        },
        {
          "indexed": false,
          "internalType": "string",
          "name": "walletManagerId",
          "type": "string"
        },
        {
          "indexed": false,
          "internalType": "address",
          "name": "assetToken",
          "type": "address"
        },
        {
          "indexed": false,
          "internalType": "uint256",
          "name": "assetAmount",
          "type": "uint256"
        }
      ],
      "name": "PlantSeed",
      "type": "event"
    },
    {
      "anonymous": false,
      "inputs": [
        {
          "indexed": true,
          "internalType": "address",
          "name": "from",
          "type": "address"
        },
        {
          "indexed": true,
          "internalType": "address",
          "name": "to",
          "type": "address"
        },
        {
          "indexed": true,
          "internalType": "uint256",
          "name": "tokenId",
          "type": "uint256"
        }
      ],
      "name": "Transfer",
      "type": "event"
    },
    {
      "inputs": [
        {
          "internalType": "address",
          "name": "to",
          "type": "address"
        },
        {
          "internalType": "uint256",
          "name": "tokenId",
          "type": "uint256"
        }
      ],
      "name": "approve",
      "outputs": [],
      "stateMutability": "nonpayable",
      "type": "function"
    },
    {
      "inputs": [
        {
          "internalType": "address",
          "name": "owner",
          "type": "address"
        }
      ],
      "name": "balanceOf",
      "outputs": [
        {
          "internalType": "uint256",
          "name": "",
          "type": "uint256"
        }
      ],
      "stateMutability": "view",
      "type": "function",
      "constant": true
    },
    {
      "inputs": [],
      "name": "baseURI",
      "outputs": [
        {
          "internalType": "string",
          "name": "",
          "type": "string"
        }
      ],
      "stateMutability": "view",
      "type": "function",
      "constant": true
    },
    {
      "inputs": [
        {
          "internalType": "uint256",
          "name": "tokenId",
          "type": "uint256"
        }
      ],
      "name": "getApproved",
      "outputs": [
        {
          "internalType": "address",
          "name": "",
          "type": "address"
        }
      ],
      "stateMutability": "view",
      "type": "function",
      "constant": true
    },
    {
      "inputs": [
        {
          "internalType": "address",
          "name": "owner",
          "type": "address"
        },
        {
          "internalType": "address",
          "name": "operator",
          "type": "address"
        }
      ],
      "name": "isApprovedForAll",
      "outputs": [
        {
          "internalType": "bool",
          "name": "",
          "type": "bool"
        }
      ],
      "stateMutability": "view",
      "type": "function",
      "constant": true
    },
    {
      "inputs": [],
      "name": "name",
      "outputs": [
        {
          "internalType": "string",
          "name": "",
          "type": "string"
        }
      ],
      "stateMutability": "view",
      "type": "function",
      "constant": true
    },
    {
      "inputs": [
        {
          "internalType": "uint256",
          "name": "tokenId",
          "type": "uint256"
        }
      ],
      "name": "ownerOf",
      "outputs": [
        {
          "internalType": "address",
          "name": "",
          "type": "address"
        }
      ],
      "stateMutability": "view",
      "type": "function",
      "constant": true
    },
    {
      "inputs": [
        {
          "internalType": "address",
          "name": "from",
          "type": "address"
        },
        {
          "internalType": "address",
          "name": "to",
          "type": "address"
        },
        {
          "internalType": "uint256",
          "name": "tokenId",
          "type": "uint256"
        }
      ],
      "name": "safeTransferFrom",
      "outputs": [],
      "stateMutability": "nonpayable",
      "type": "function"
    },
    {
      "inputs": [
        {
          "internalType": "address",
          "name": "from",
          "type": "address"
        },
        {
          "internalType": "address",
          "name": "to",
          "type": "address"
        },
        {
          "internalType": "uint256",
          "name": "tokenId",
          "type": "uint256"
        },
        {
          "internalType": "bytes",
          "name": "_data",
          "type": "bytes"
        }
      ],
      "name": "safeTransferFrom",
      "outputs": [],
      "stateMutability": "nonpayable",
      "type": "function"
    },
    {
      "inputs": [
        {
          "internalType": "address",
          "name": "operator",
          "type": "address"
        },
        {
          "internalType": "bool",
          "name": "approved",
          "type": "bool"
        }
      ],
      "name": "setApprovalForAll",
      "outputs": [],
      "stateMutability": "nonpayable",
      "type": "function"
    },
    {
      "inputs": [
        {
          "internalType": "bytes4",
          "name": "interfaceId",
          "type": "bytes4"
        }
      ],
      "name": "supportsInterface",
      "outputs": [
        {
          "internalType": "bool",
          "name": "",
          "type": "bool"
        }
      ],
      "stateMutability": "view",
      "type": "function",
      "constant": true
    },
    {
      "inputs": [],
      "name": "symbol",
      "outputs": [
        {
          "internalType": "string",
          "name": "",
          "type": "string"
        }
      ],
      "stateMutability": "view",
      "type": "function",
      "constant": true
    },
    {
      "inputs": [
        {
          "internalType": "uint256",
          "name": "index",
          "type": "uint256"
        }
      ],
      "name": "tokenByIndex",
      "outputs": [
        {
          "internalType": "uint256",
          "name": "",
          "type": "uint256"
        }
      ],
      "stateMutability": "view",
      "type": "function",
      "constant": true
    },
    {
      "inputs": [
        {
          "internalType": "address",
          "name": "owner",
          "type": "address"
        },
        {
          "internalType": "uint256",
          "name": "index",
          "type": "uint256"
        }
      ],
      "name": "tokenOfOwnerByIndex",
      "outputs": [
        {
          "internalType": "uint256",
          "name": "",
          "type": "uint256"
        }
      ],
      "stateMutability": "view",
      "type": "function",
      "constant": true
    },
    {
      "inputs": [
        {
          "internalType": "uint256",
          "name": "tokenId",
          "type": "uint256"
        }
      ],
      "name": "tokenURI",
      "outputs": [
        {
          "internalType": "string",
          "name": "",
          "type": "string"
        }
      ],
      "stateMutability": "view",
      "type": "function",
      "constant": true
    },
    {
      "inputs": [],
      "name": "totalSupply",
      "outputs": [
        {
          "internalType": "uint256",
          "name": "",
          "type": "uint256"
        }
      ],
      "stateMutability": "view",
      "type": "function",
      "constant": true
    },
    {
      "inputs": [
        {
          "internalType": "address",
          "name": "from",
          "type": "address"
        },
        {
          "internalType": "address",
          "name": "to",
          "type": "address"
        },
        {
          "internalType": "uint256",
          "name": "tokenId",
          "type": "uint256"
        }
      ],
      "name": "transferFrom",
      "outputs": [],
      "stateMutability": "nonpayable",
      "type": "function"
    },
    {
      "inputs": [
        {
          "internalType": "uint256",
          "name": "tokenId",
          "type": "uint256"
        }
      ],
      "name": "isChopped",
      "outputs": [
        {
          "internalType": "bool",
          "name": "",
          "type": "bool"
        }
      ],
      "stateMutability": "view",
      "type": "function",
      "constant": true
    },
    {
      "inputs": [
        {
          "internalType": "string",
          "name": "walletManagerId",
          "type": "string"
        },
        {
          "internalType": "address",
          "name": "assetToken",
          "type": "address"
        },
        {
          "internalType": "uint256",
          "name": "assetAmount",
          "type": "uint256"
        }
      ],
      "name": "plantSeed",
      "outputs": [
        {
          "internalType": "uint256",
          "name": "",
          "type": "uint256"
        }
      ],
      "stateMutability": "nonpayable",
      "type": "function"
    },
    {
      "inputs": [
        {
          "internalType": "uint256",
          "name": "tokenId",
          "type": "uint256"
        }
      ],
      "name": "chopTree",
      "outputs": [],
      "stateMutability": "nonpayable",
      "type": "function"
    }
  ],
  "bytecode": "0x608060405273f03eab2b60efb6e24c1b254a2d6fc91eb639d6d3600c60006101000a81548173ffffffffffffffffffffffffffffffffffffffff021916908373ffffffffffffffffffffffffffffffffffffffff1602179055503480156200006657600080fd5b506040518060400160405280600681526020017f4e465472656500000000000000000000000000000000000000000000000000008152506040518060400160405280600681526020017f4e46545245450000000000000000000000000000000000000000000000000000815250620000eb6301ffc9a760e01b6200016d60201b60201c565b81600690805190602001906200010392919062000276565b5080600790805190602001906200011c92919062000276565b50620001356380ac58cd60e01b6200016d60201b60201c565b6200014d635b5e139f60e01b6200016d60201b60201c565b6200016563780e9d6360e01b6200016d60201b60201c565b50506200031c565b63ffffffff60e01b817bffffffffffffffffffffffffffffffffffffffffffffffffffffffff191614156200020a576040517f08c379a000000000000000000000000000000000000000000000000000000000815260040180806020018281038252601c8152602001807f4552433136353a20696e76616c696420696e746572666163652069640000000081525060200191505060405180910390fd5b6001600080837bffffffffffffffffffffffffffffffffffffffffffffffffffffffff19167bffffffffffffffffffffffffffffffffffffffffffffffffffffffff1916815260200190815260200160002060006101000a81548160ff02191690831515021790555050565b828054600181600116156101000203166002900490600052602060002090601f016020900481019282601f10620002b957805160ff1916838001178555620002ea565b82800160010185558215620002ea579182015b82811115620002e9578251825591602001919060010190620002cc565b5b509050620002f99190620002fd565b5090565b5b8082111562000318576000816000905550600101620002fe565b5090565b613803806200032c6000396000f3fe608060405234801561001057600080fd5b506004361061012c5760003560e01c80636c0360eb116100ad578063a22cb46511610071578063a22cb4651461070c578063b88d4fde1461075c578063b9e6528f14610861578063c87b56dd1461088f578063e985e9c5146109365761012c565b80636c0360eb146104b357806370a08231146105365780639556b5941461058e57806395d89b41146105d25780639ef32694146106555761012c565b806323b872dd116100f457806323b872dd146102db5780632f745c591461034957806342842e0e146103ab5780634f6ccce7146104195780636352211e1461045b5761012c565b806301ffc9a71461013157806306fdde0314610194578063081812fc14610217578063095ea7b31461026f57806318160ddd146102bd575b600080fd5b61017c6004803603602081101561014757600080fd5b8101908080357bffffffffffffffffffffffffffffffffffffffffffffffffffffffff191690602001909291905050506109b0565b60405180821515815260200191505060405180910390f35b61019c610a17565b6040518080602001828103825283818151815260200191508051906020019080838360005b838110156101dc5780820151818401526020810190506101c1565b50505050905090810190601f1680156102095780820380516001836020036101000a031916815260200191505b509250505060405180910390f35b6102436004803603602081101561022d57600080fd5b8101908080359060200190929190505050610ab9565b604051808273ffffffffffffffffffffffffffffffffffffffff16815260200191505060405180910390f35b6102bb6004803603604081101561028557600080fd5b81019080803573ffffffffffffffffffffffffffffffffffffffff16906020019092919080359060200190929190505050610b54565b005b6102c5610c98565b6040518082815260200191505060405180910390f35b610347600480360360608110156102f157600080fd5b81019080803573ffffffffffffffffffffffffffffffffffffffff169060200190929190803573ffffffffffffffffffffffffffffffffffffffff16906020019092919080359060200190929190505050610ca9565b005b6103956004803603604081101561035f57600080fd5b81019080803573ffffffffffffffffffffffffffffffffffffffff16906020019092919080359060200190929190505050610d1f565b6040518082815260200191505060405180910390f35b610417600480360360608110156103c157600080fd5b81019080803573ffffffffffffffffffffffffffffffffffffffff169060200190929190803573ffffffffffffffffffffffffffffffffffffffff16906020019092919080359060200190929190505050610d7a565b005b6104456004803603602081101561042f57600080fd5b8101908080359060200190929190505050610d9a565b6040518082815260200191505060405180910390f35b6104876004803603602081101561047157600080fd5b8101908080359060200190929190505050610dbd565b604051808273ffffffffffffffffffffffffffffffffffffffff16815260200191505060405180910390f35b6104bb610df4565b6040518080602001828103825283818151815260200191508051906020019080838360005b838110156104fb5780820151818401526020810190506104e0565b50505050905090810190601f1680156105285780820380516001836020036101000a031916815260200191505b509250505060405180910390f35b6105786004803603602081101561054c57600080fd5b81019080803573ffffffffffffffffffffffffffffffffffffffff169060200190929190505050610e96565b6040518082815260200191505060405180910390f35b6105ba600480360360208110156105a457600080fd5b8101908080359060200190929190505050610f6b565b60405180821515815260200191505060405180910390f35b6105da610f98565b6040518080602001828103825283818151815260200191508051906020019080838360005b8381101561061a5780820151818401526020810190506105ff565b50505050905090810190601f1680156106475780820380516001836020036101000a031916815260200191505b509250505060405180910390f35b6106f66004803603606081101561066b57600080fd5b810190808035906020019064010000000081111561068857600080fd5b82018360208201111561069a57600080fd5b803590602001918460018302840111640100000000831117156106bc57600080fd5b9091929391929390803573ffffffffffffffffffffffffffffffffffffffff1690602001909291908035906020019092919050505061103a565b6040518082815260200191505060405180910390f35b61075a6004803603604081101561072257600080fd5b81019080803573ffffffffffffffffffffffffffffffffffffffff16906020019092919080351515906020019092919050505061145d565b005b61085f6004803603608081101561077257600080fd5b81019080803573ffffffffffffffffffffffffffffffffffffffff169060200190929190803573ffffffffffffffffffffffffffffffffffffffff16906020019092919080359060200190929190803590602001906401000000008111156107d957600080fd5b8201836020820111156107eb57600080fd5b8035906020019184600183028401116401000000008311171561080d57600080fd5b91908080601f016020809104026020016040519081016040528093929190818152602001838380828437600081840152601f19601f820116905080830192505050505050509192919290505050611613565b005b61088d6004803603602081101561087757600080fd5b810190808035906020019092919050505061168b565b005b6108bb600480360360208110156108a557600080fd5b8101908080359060200190929190505050611b6e565b6040518080602001828103825283818151815260200191508051906020019080838360005b838110156108fb5780820151818401526020810190506108e0565b50505050905090810190601f1680156109285780820380516001836020036101000a031916815260200191505b509250505060405180910390f35b6109986004803603604081101561094c57600080fd5b81019080803573ffffffffffffffffffffffffffffffffffffffff169060200190929190803573ffffffffffffffffffffffffffffffffffffffff169060200190929190505050611e3f565b60405180821515815260200191505060405180910390f35b6000806000837bffffffffffffffffffffffffffffffffffffffffffffffffffffffff19167bffffffffffffffffffffffffffffffffffffffffffffffffffffffff1916815260200190815260200160002060009054906101000a900460ff169050919050565b606060068054600181600116156101000203166002900480601f016020809104026020016040519081016040528092919081815260200182805460018160011615610100020316600290048015610aaf5780601f10610a8457610100808354040283529160200191610aaf565b820191906000526020600020905b815481529060010190602001808311610a9257829003601f168201915b5050505050905090565b6000610ac482611ed3565b610b19576040517f08c379a000000000000000000000000000000000000000000000000000000000815260040180806020018281038252602c8152602001806136f8602c913960400191505060405180910390fd5b6004600083815260200190815260200160002060009054906101000a900473ffffffffffffffffffffffffffffffffffffffff169050919050565b6000610b5f82610dbd565b90508073ffffffffffffffffffffffffffffffffffffffff168373ffffffffffffffffffffffffffffffffffffffff161415610be6576040517f08c379a000000000000000000000000000000000000000000000000000000000815260040180806020018281038252602181526020018061377c6021913960400191505060405180910390fd5b8073ffffffffffffffffffffffffffffffffffffffff16610c05611ef0565b73ffffffffffffffffffffffffffffffffffffffff161480610c345750610c3381610c2e611ef0565b611e3f565b5b610c89576040517f08c379a000000000000000000000000000000000000000000000000000000000815260040180806020018281038252603881526020018061364b6038913960400191505060405180910390fd5b610c938383611ef8565b505050565b6000610ca46002611fb1565b905090565b610cba610cb4611ef0565b82611fc6565b610d0f576040517f08c379a000000000000000000000000000000000000000000000000000000000815260040180806020018281038252603181526020018061379d6031913960400191505060405180910390fd5b610d1a8383836120ba565b505050565b6000610d7282600160008673ffffffffffffffffffffffffffffffffffffffff1673ffffffffffffffffffffffffffffffffffffffff1681526020019081526020016000206122fd90919063ffffffff16565b905092915050565b610d9583838360405180602001604052806000815250611613565b505050565b600080610db183600261231790919063ffffffff16565b50905080915050919050565b6000610ded826040518060600160405280602981526020016136ad6029913960026123439092919063ffffffff16565b9050919050565b606060098054600181600116156101000203166002900480601f016020809104026020016040519081016040528092919081815260200182805460018160011615610100020316600290048015610e8c5780601f10610e6157610100808354040283529160200191610e8c565b820191906000526020600020905b815481529060010190602001808311610e6f57829003601f168201915b5050505050905090565b60008073ffffffffffffffffffffffffffffffffffffffff168273ffffffffffffffffffffffffffffffffffffffff161415610f1d576040517f08c379a000000000000000000000000000000000000000000000000000000000815260040180806020018281038252602a815260200180613683602a913960400191505060405180910390fd5b610f64600160008473ffffffffffffffffffffffffffffffffffffffff1673ffffffffffffffffffffffffffffffffffffffff168152602001908152602001600020612362565b9050919050565b6000600b600083815260200190815260200160002060030160009054906101000a900460ff169050919050565b606060078054600181600116156101000203166002900480601f0160208091040260200160405190810160405280929190818152602001828054600181600116156101000203166002900480156110305780601f1061100557610100808354040283529160200191611030565b820191906000526020600020905b81548152906001019060200180831161101357829003601f168201915b5050505050905090565b600080611045611ef0565b9050611051600a612377565b600061105d600a61238d565b9050604051806080016040528088888080601f016020809104026020016040519081016040528093929190818152602001838380828437600081840152601f19601f8201169050808301925050505050505081526020018673ffffffffffffffffffffffffffffffffffffffff16815260200185815260200160001515815250600b6000838152602001908152602001600020600082015181600001908051906020019061110c929190613433565b5060208201518160010160006101000a81548173ffffffffffffffffffffffffffffffffffffffff021916908373ffffffffffffffffffffffffffffffffffffffff1602179055506040820151816002015560608201518160030160006101000a81548160ff02191690831515021790555090505061118b828261239b565b8473ffffffffffffffffffffffffffffffffffffffff1663095ea7b3600c60009054906101000a900473ffffffffffffffffffffffffffffffffffffffff16866040518363ffffffff1660e01b8152600401808373ffffffffffffffffffffffffffffffffffffffff16815260200182815260200192505050602060405180830381600087803b15801561121e57600080fd5b505af1158015611232573d6000803e3d6000fd5b505050506040513d602081101561124857600080fd5b810190808051906020019092919050505050600c60009054906101000a900473ffffffffffffffffffffffffffffffffffffffff1673ffffffffffffffffffffffffffffffffffffffff16630bdde2ca30838a8a8a8a60006040518863ffffffff1660e01b8152600401808873ffffffffffffffffffffffffffffffffffffffff168152602001878152602001806020018573ffffffffffffffffffffffffffffffffffffffff1681526020018481526020018373ffffffffffffffffffffffffffffffffffffffff1681526020018281038252878782818152602001925080828437600081840152601f19601f82011690508083019250505098505050505050505050602060405180830381600087803b15801561136657600080fd5b505af115801561137a573d6000803e3d6000fd5b505050506040513d602081101561139057600080fd5b8101908080519060200190929190505050507e6e134937db8d304b42e4497130987e86f01c7d60dc3c12bba785078c46e6f0818389898989604051808781526020018673ffffffffffffffffffffffffffffffffffffffff168152602001806020018473ffffffffffffffffffffffffffffffffffffffff1681526020018381526020018281038252868682818152602001925080828437600081840152601f19601f82011690508083019250505097505050505050505060405180910390a18092505050949350505050565b611465611ef0565b73ffffffffffffffffffffffffffffffffffffffff168273ffffffffffffffffffffffffffffffffffffffff161415611506576040517f08c379a00000000000000000000000000000000000000000000000000000000081526004018080602001828103825260198152602001807f4552433732313a20617070726f766520746f2063616c6c65720000000000000081525060200191505060405180910390fd5b8060056000611513611ef0565b73ffffffffffffffffffffffffffffffffffffffff1673ffffffffffffffffffffffffffffffffffffffff16815260200190815260200160002060008473ffffffffffffffffffffffffffffffffffffffff1673ffffffffffffffffffffffffffffffffffffffff16815260200190815260200160002060006101000a81548160ff0219169083151502179055508173ffffffffffffffffffffffffffffffffffffffff166115c0611ef0565b73ffffffffffffffffffffffffffffffffffffffff167f17307eab39ab6107e8899845ad3d59bd9653f200f220920489ca2b5937696c318360405180821515815260200191505060405180910390a35050565b61162461161e611ef0565b83611fc6565b611679576040517f08c379a000000000000000000000000000000000000000000000000000000000815260040180806020018281038252603181526020018061379d6031913960400191505060405180910390fd5b611685848484846123b9565b50505050565b6000611695611ef0565b90506116a18183611fc6565b6116f6576040517f08c379a00000000000000000000000000000000000000000000000000000000081526004018080602001828103825260288152602001806135d16028913960400191505060405180910390fd5b6116fe6134b3565b600b6000848152602001908152602001600020604051806080016040529081600082018054600181600116156101000203166002900480601f0160208091040260200160405190810160405280929190818152602001828054600181600116156101000203166002900480156117b55780601f1061178a576101008083540402835291602001916117b5565b820191906000526020600020905b81548152906001019060200180831161179857829003601f168201915b505050505081526020016001820160009054906101000a900473ffffffffffffffffffffffffffffffffffffffff1673ffffffffffffffffffffffffffffffffffffffff1673ffffffffffffffffffffffffffffffffffffffff168152602001600282015481526020016003820160009054906101000a900460ff16151515158152505090508060600151156118b3576040517f08c379a000000000000000000000000000000000000000000000000000000000815260040180806020018281038252601f8152602001807f4e46547265653a207472656520697320616c72656164792063686f707065640081525060200191505060405180910390fd5b6001600b600085815260200190815260200160002060030160006101000a81548160ff0219169083151502179055506118eb8361242b565b600c60009054906101000a900473ffffffffffffffffffffffffffffffffffffffff1673ffffffffffffffffffffffffffffffffffffffff1663621a3b70833086856000015186602001516040518663ffffffff1660e01b8152600401808673ffffffffffffffffffffffffffffffffffffffff1681526020018573ffffffffffffffffffffffffffffffffffffffff168152602001848152602001806020018373ffffffffffffffffffffffffffffffffffffffff168152602001828103825284818151815260200191508051906020019080838360005b838110156119df5780820151818401526020810190506119c4565b50505050905090810190601f168015611a0c5780820380516001836020036101000a031916815260200191505b5096505050505050506040805180830381600087803b158015611a2e57600080fd5b505af1158015611a42573d6000803e3d6000fd5b505050506040513d6040811015611a5857600080fd5b81019080805190602001909291908051906020019092919050505050507fe421f8749282400f9bebb6ba8ab803ac32a8ba069f5462fab90383916621732a8383836000015184602001518560400151604051808681526020018573ffffffffffffffffffffffffffffffffffffffff168152602001806020018473ffffffffffffffffffffffffffffffffffffffff168152602001838152602001828103825285818151815260200191508051906020019080838360005b83811015611b2b578082015181840152602081019050611b10565b50505050905090810190601f168015611b585780820380516001836020036101000a031916815260200191505b50965050505050505060405180910390a1505050565b6060611b7982611ed3565b611bce576040517f08c379a000000000000000000000000000000000000000000000000000000000815260040180806020018281038252602f81526020018061374d602f913960400191505060405180910390fd5b6060600860008481526020019081526020016000208054600181600116156101000203166002900480601f016020809104026020016040519081016040528092919081815260200182805460018160011615610100020316600290048015611c775780601f10611c4c57610100808354040283529160200191611c77565b820191906000526020600020905b815481529060010190602001808311611c5a57829003601f168201915b505050505090506060611c88610df4565b9050600081511415611c9e578192505050611e3a565b600082511115611d6f5780826040516020018083805190602001908083835b60208310611ce05780518252602082019150602081019050602083039250611cbd565b6001836020036101000a03801982511681845116808217855250505050505090500182805190602001908083835b60208310611d315780518252602082019150602081019050602083039250611d0e565b6001836020036101000a0380198251168184511680821785525050505050509050019250505060405160208183030381529060405292505050611e3a565b80611d7985612565565b6040516020018083805190602001908083835b60208310611daf5780518252602082019150602081019050602083039250611d8c565b6001836020036101000a03801982511681845116808217855250505050505090500182805190602001908083835b60208310611e005780518252602082019150602081019050602083039250611ddd565b6001836020036101000a03801982511681845116808217855250505050505090500192505050604051602081830303815290604052925050505b919050565b6000600560008473ffffffffffffffffffffffffffffffffffffffff1673ffffffffffffffffffffffffffffffffffffffff16815260200190815260200160002060008373ffffffffffffffffffffffffffffffffffffffff1673ffffffffffffffffffffffffffffffffffffffff16815260200190815260200160002060009054906101000a900460ff16905092915050565b6000611ee98260026126ac90919063ffffffff16565b9050919050565b600033905090565b816004600083815260200190815260200160002060006101000a81548173ffffffffffffffffffffffffffffffffffffffff021916908373ffffffffffffffffffffffffffffffffffffffff160217905550808273ffffffffffffffffffffffffffffffffffffffff16611f6b83610dbd565b73ffffffffffffffffffffffffffffffffffffffff167f8c5be1e5ebec7d5bd14f71427d1e84f3dd0314c0f7b2291e5b200ac8c7c3b92560405160405180910390a45050565b6000611fbf826000016126c6565b9050919050565b6000611fd182611ed3565b612026576040517f08c379a000000000000000000000000000000000000000000000000000000000815260040180806020018281038252602c81526020018061361f602c913960400191505060405180910390fd5b600061203183610dbd565b90508073ffffffffffffffffffffffffffffffffffffffff168473ffffffffffffffffffffffffffffffffffffffff1614806120a057508373ffffffffffffffffffffffffffffffffffffffff1661208884610ab9565b73ffffffffffffffffffffffffffffffffffffffff16145b806120b157506120b08185611e3f565b5b91505092915050565b8273ffffffffffffffffffffffffffffffffffffffff166120da82610dbd565b73ffffffffffffffffffffffffffffffffffffffff1614612146576040517f08c379a00000000000000000000000000000000000000000000000000000000081526004018080602001828103825260298152602001806137246029913960400191505060405180910390fd5b600073ffffffffffffffffffffffffffffffffffffffff168273ffffffffffffffffffffffffffffffffffffffff1614156121cc576040517f08c379a00000000000000000000000000000000000000000000000000000000081526004018080602001828103825260248152602001806135ad6024913960400191505060405180910390fd5b6121d78383836126d7565b6121e2600082611ef8565b61223381600160008673ffffffffffffffffffffffffffffffffffffffff1673ffffffffffffffffffffffffffffffffffffffff1681526020019081526020016000206126dc90919063ffffffff16565b5061228581600160008573ffffffffffffffffffffffffffffffffffffffff1673ffffffffffffffffffffffffffffffffffffffff1681526020019081526020016000206126f690919063ffffffff16565b5061229c818360026127109092919063ffffffff16565b50808273ffffffffffffffffffffffffffffffffffffffff168473ffffffffffffffffffffffffffffffffffffffff167fddf252ad1be2c89b69c2b068fc378daa952ba7f163c4a11628f55a4df523b3ef60405160405180910390a4505050565b600061230c8360000183612745565b60001c905092915050565b60008060008061232a86600001866127c8565b915091508160001c8160001c9350935050509250929050565b6000612356846000018460001b84612861565b60001c90509392505050565b600061237082600001612957565b9050919050565b6001816000016000828254019250508190555050565b600081600001549050919050565b6123b5828260405180602001604052806000815250612968565b5050565b6123c48484846120ba565b6123d0848484846129d9565b612425576040517f08c379a000000000000000000000000000000000000000000000000000000000815260040180806020018281038252603281526020018061357b6032913960400191505060405180910390fd5b50505050565b600061243682610dbd565b9050612444816000846126d7565b61244f600083611ef8565b6000600860008481526020019081526020016000208054600181600116156101000203166002900490501461249e5760086000838152602001908152602001600020600061249d91906134f3565b5b6124ef82600160008473ffffffffffffffffffffffffffffffffffffffff1673ffffffffffffffffffffffffffffffffffffffff1681526020019081526020016000206126dc90919063ffffffff16565b50612504826002612bf290919063ffffffff16565b5081600073ffffffffffffffffffffffffffffffffffffffff168273ffffffffffffffffffffffffffffffffffffffff167fddf252ad1be2c89b69c2b068fc378daa952ba7f163c4a11628f55a4df523b3ef60405160405180910390a45050565b606060008214156125ad576040518060400160405280600181526020017f300000000000000000000000000000000000000000000000000000000000000081525090506126a7565b600082905060005b600082146125d7578080600101915050600a82816125cf57fe5b0491506125b5565b60608167ffffffffffffffff811180156125f057600080fd5b506040519080825280601f01601f1916602001820160405280156126235781602001600182028036833780820191505090505b50905060006001830390508593505b6000841461269f57600a848161264457fe5b0660300160f81b8282806001900393508151811061265e57fe5b60200101907effffffffffffffffffffffffffffffffffffffffffffffffffffffffffffff1916908160001a905350600a848161269757fe5b049350612632565b819450505050505b919050565b60006126be836000018360001b612c0c565b905092915050565b600081600001805490509050919050565b505050565b60006126ee836000018360001b612c2f565b905092915050565b6000612708836000018360001b612d17565b905092915050565b600061273c846000018460001b8473ffffffffffffffffffffffffffffffffffffffff1660001b612d87565b90509392505050565b6000818360000180549050116127a6576040517f08c379a00000000000000000000000000000000000000000000000000000000081526004018080602001828103825260228152602001806135596022913960400191505060405180910390fd5b8260000182815481106127b557fe5b9060005260206000200154905092915050565b6000808284600001805490501161282a576040517f08c379a00000000000000000000000000000000000000000000000000000000081526004018080602001828103825260228152602001806136d66022913960400191505060405180910390fd5b600084600001848154811061283b57fe5b906000526020600020906002020190508060000154816001015492509250509250929050565b60008084600101600085815260200190815260200160002054905060008114158390612928576040517f08c379a00000000000000000000000000000000000000000000000000000000081526004018080602001828103825283818151815260200191508051906020019080838360005b838110156128ed5780820151818401526020810190506128d2565b50505050905090810190601f16801561291a5780820380516001836020036101000a031916815260200191505b509250505060405180910390fd5b5084600001600182038154811061293b57fe5b9060005260206000209060020201600101549150509392505050565b600081600001805490509050919050565b6129728383612e63565b61297f60008484846129d9565b6129d4576040517f08c379a000000000000000000000000000000000000000000000000000000000815260040180806020018281038252603281526020018061357b6032913960400191505060405180910390fd5b505050565b60006129fa8473ffffffffffffffffffffffffffffffffffffffff16613057565b612a075760019050612bea565b6060612b7163150b7a0260e01b612a1c611ef0565b888787604051602401808573ffffffffffffffffffffffffffffffffffffffff1681526020018473ffffffffffffffffffffffffffffffffffffffff16815260200183815260200180602001828103825283818151815260200191508051906020019080838360005b83811015612aa0578082015181840152602081019050612a85565b50505050905090810190601f168015612acd5780820380516001836020036101000a031916815260200191505b5095505050505050604051602081830303815290604052907bffffffffffffffffffffffffffffffffffffffffffffffffffffffff19166020820180517bffffffffffffffffffffffffffffffffffffffffffffffffffffffff838183161783525050505060405180606001604052806032815260200161357b603291398773ffffffffffffffffffffffffffffffffffffffff1661306a9092919063ffffffff16565b90506000818060200190516020811015612b8a57600080fd5b8101908080519060200190929190505050905063150b7a0260e01b7bffffffffffffffffffffffffffffffffffffffffffffffffffffffff1916817bffffffffffffffffffffffffffffffffffffffffffffffffffffffff191614925050505b949350505050565b6000612c04836000018360001b613082565b905092915050565b600080836001016000848152602001908152602001600020541415905092915050565b60008083600101600084815260200190815260200160002054905060008114612d0b5760006001820390506000600186600001805490500390506000866000018281548110612c7a57fe5b9060005260206000200154905080876000018481548110612c9757fe5b9060005260206000200181905550600183018760010160008381526020019081526020016000208190555086600001805480612ccf57fe5b60019003818190600052602060002001600090559055866001016000878152602001908152602001600020600090556001945050505050612d11565b60009150505b92915050565b6000612d23838361319b565b612d7c578260000182908060018154018082558091505060019003906000526020600020016000909190919091505582600001805490508360010160008481526020019081526020016000208190555060019050612d81565b600090505b92915050565b6000808460010160008581526020019081526020016000205490506000811415612e2e57846000016040518060400160405280868152602001858152509080600181540180825580915050600190039060005260206000209060020201600090919091909150600082015181600001556020820151816001015550508460000180549050856001016000868152602001908152602001600020819055506001915050612e5c565b82856000016001830381548110612e4157fe5b90600052602060002090600202016001018190555060009150505b9392505050565b600073ffffffffffffffffffffffffffffffffffffffff168273ffffffffffffffffffffffffffffffffffffffff161415612f06576040517f08c379a00000000000000000000000000000000000000000000000000000000081526004018080602001828103825260208152602001807f4552433732313a206d696e7420746f20746865207a65726f206164647265737381525060200191505060405180910390fd5b612f0f81611ed3565b15612f82576040517f08c379a000000000000000000000000000000000000000000000000000000000815260040180806020018281038252601c8152602001807f4552433732313a20746f6b656e20616c7265616479206d696e7465640000000081525060200191505060405180910390fd5b612f8e600083836126d7565b612fdf81600160008573ffffffffffffffffffffffffffffffffffffffff1673ffffffffffffffffffffffffffffffffffffffff1681526020019081526020016000206126f690919063ffffffff16565b50612ff6818360026127109092919063ffffffff16565b50808273ffffffffffffffffffffffffffffffffffffffff16600073ffffffffffffffffffffffffffffffffffffffff167fddf252ad1be2c89b69c2b068fc378daa952ba7f163c4a11628f55a4df523b3ef60405160405180910390a45050565b600080823b905060008111915050919050565b606061307984846000856131be565b90509392505050565b6000808360010160008481526020019081526020016000205490506000811461318f57600060018203905060006001866000018054905003905060008660000182815481106130cd57fe5b90600052602060002090600202019050808760000184815481106130ed57fe5b906000526020600020906002020160008201548160000155600182015481600101559050506001830187600101600083600001548152602001908152602001600020819055508660000180548061314057fe5b6001900381819060005260206000209060020201600080820160009055600182016000905550509055866001016000878152602001908152602001600020600090556001945050505050613195565b60009150505b92915050565b600080836001016000848152602001908152602001600020541415905092915050565b606082471015613219576040517f08c379a00000000000000000000000000000000000000000000000000000000081526004018080602001828103825260268152602001806135f96026913960400191505060405180910390fd5b61322285613057565b613294576040517f08c379a000000000000000000000000000000000000000000000000000000000815260040180806020018281038252601d8152602001807f416464726573733a2063616c6c20746f206e6f6e2d636f6e747261637400000081525060200191505060405180910390fd5b600060608673ffffffffffffffffffffffffffffffffffffffff1685876040518082805190602001908083835b602083106132e457805182526020820191506020810190506020830392506132c1565b6001836020036101000a03801982511681845116808217855250505050505090500191505060006040518083038185875af1925050503d8060008114613346576040519150601f19603f3d011682016040523d82523d6000602084013e61334b565b606091505b509150915061335b828286613367565b92505050949350505050565b606083156133775782905061342c565b60008351111561338a5782518084602001fd5b816040517f08c379a00000000000000000000000000000000000000000000000000000000081526004018080602001828103825283818151815260200191508051906020019080838360005b838110156133f15780820151818401526020810190506133d6565b50505050905090810190601f16801561341e5780820380516001836020036101000a031916815260200191505b509250505060405180910390fd5b9392505050565b828054600181600116156101000203166002900490600052602060002090601f016020900481019282601f1061347457805160ff19168380011785556134a2565b828001600101855582156134a2579182015b828111156134a1578251825591602001919060010190613486565b5b5090506134af919061353b565b5090565b604051806080016040528060608152602001600073ffffffffffffffffffffffffffffffffffffffff168152602001600081526020016000151581525090565b50805460018160011615610100020316600290046000825580601f106135195750613538565b601f016020900490600052602060002090810190613537919061353b565b5b50565b5b8082111561355457600081600090555060010161353c565b509056fe456e756d657261626c655365743a20696e646578206f7574206f6620626f756e64734552433732313a207472616e7366657220746f206e6f6e20455243373231526563656976657220696d706c656d656e7465724552433732313a207472616e7366657220746f20746865207a65726f20616464726573734e46547265653a2063616c6c6572206973206e6f74206f776e6572206e6f7220617070726f766564416464726573733a20696e73756666696369656e742062616c616e636520666f722063616c6c4552433732313a206f70657261746f7220717565727920666f72206e6f6e6578697374656e7420746f6b656e4552433732313a20617070726f76652063616c6c6572206973206e6f74206f776e6572206e6f7220617070726f76656420666f7220616c6c4552433732313a2062616c616e636520717565727920666f7220746865207a65726f20616464726573734552433732313a206f776e657220717565727920666f72206e6f6e6578697374656e7420746f6b656e456e756d657261626c654d61703a20696e646578206f7574206f6620626f756e64734552433732313a20617070726f76656420717565727920666f72206e6f6e6578697374656e7420746f6b656e4552433732313a207472616e73666572206f6620746f6b656e2074686174206973206e6f74206f776e4552433732314d657461646174613a2055524920717565727920666f72206e6f6e6578697374656e7420746f6b656e4552433732313a20617070726f76616c20746f2063757272656e74206f776e65724552433732313a207472616e736665722063616c6c6572206973206e6f74206f776e6572206e6f7220617070726f766564a2646970667358221220429c5ec8dd6801778999fdcbac45cad3fa3779e216dda9f07007fcf7f2b73c9f64736f6c634300060c0033",
  "immutableReferences": {},
  "source": "// SPDX-License-Identifier: MIT\npragma solidity 0.6.12;\n\nimport \"@charged-particles/universe/contracts/interfaces/IChargedParticles.sol\";\nimport \"@openzeppelin/contracts/token/ERC20/IERC20.sol\";\nimport \"@openzeppelin/contracts/token/ERC721/ERC721.sol\";\nimport \"@openzeppelin/contracts/token/ERC721/IERC721Receiver.sol\";\nimport \"@openzeppelin/contracts/utils/Counters.sol\";\n\ncontract NFTree is ERC721 {\n  using Counters for Counters.Counter;\n\n  event PlantSeed(\n    uint256 tokenId,\n    address owner,\n    string walletManagerId,\n    address assetToken,\n    uint256 assetAmount\n  );\n\n  event ChopTree(\n    uint256 tokenId,\n    address owner,\n    string walletManagerId,\n    address assetToken,\n    uint256 assetAmount\n  );\n\n  struct Tree {\n    string walletManagerId;\n    address assetToken;\n    uint256 assetAmount;\n    bool isChopped;\n  }\n\n  Counters.Counter private _idCounter;\n  mapping (uint256 => Tree) _trees;\n  IChargedParticles private _CP = IChargedParticles(0xF03EAB2b60eFB6E24C1b254A2D6fC91Eb639D6d3);\n\n  constructor() public ERC721(\"NFTree\", \"NFTREE\") {}\n\n  function isChopped(uint256 tokenId)\n    external\n    view\n    returns (bool)\n  {\n    return _trees[tokenId].isChopped;\n  }\n\n  function plantSeed(string calldata walletManagerId, address assetToken, uint256 assetAmount)\n    external\n    returns (uint256)\n  {\n    address sender = _msgSender();\n\n    _idCounter.increment();\n    uint256 tokenId = _idCounter.current();\n    _trees[tokenId] = Tree(walletManagerId, assetToken, assetAmount, false);\n    _safeMint(sender, tokenId);\n\n    IERC20(assetToken).approve(address(_CP), assetAmount);\n    _CP.energizeParticle(\n      address(this),\n      tokenId,\n      walletManagerId,\n      assetToken,\n      assetAmount,\n      address(0x0)\n    );\n\n    PlantSeed(tokenId, sender, walletManagerId, assetToken, assetAmount);\n    return tokenId;\n  }\n\n  function chopTree(uint256 tokenId)\n    external\n  {\n    address payable owner = _msgSender();\n    require(\n      _isApprovedOrOwner(owner, tokenId),\n      \"NFTree: caller is not owner nor approved\"\n    );\n\n    Tree memory tree = _trees[tokenId];\n    require(\n      !tree.isChopped,\n      \"NFTree: tree is already chopped\"\n    );\n\n    _trees[tokenId].isChopped = true;    \n    _burn(tokenId);\n\n    _CP.dischargeParticle(\n      owner,\n      address(this),\n      tokenId,\n      tree.walletManagerId,\n      tree.assetToken\n    );\n\n    ChopTree(tokenId, owner, tree.walletManagerId, tree.assetToken, tree.assetAmount);\n  }\n}\n",
  "sourcePath": "/Users/jaschaephraim/dev/github.com/jaschaephraim/nftree/packages/nftree-contracts/contracts/NFTree.sol",
  "compiler": {
    "name": "solc",
    "version": "0.6.12+commit.27d51765.Emscripten.clang"
  },
  "schemaVersion": "3.3.4",
  "updatedAt": "2021-03-20T21:39:09.205Z",
  "networkType": "ethereum",
  "devdoc": {
    "kind": "dev",
    "methods": {
      "approve(address,uint256)": {
        "details": "See {IERC721-approve}."
      },
      "balanceOf(address)": {
        "details": "See {IERC721-balanceOf}."
      },
      "baseURI()": {
        "details": "Returns the base URI set via {_setBaseURI}. This will be automatically added as a prefix in {tokenURI} to each token's URI, or to the token ID if no specific URI is set for that token ID."
      },
      "getApproved(uint256)": {
        "details": "See {IERC721-getApproved}."
      },
      "isApprovedForAll(address,address)": {
        "details": "See {IERC721-isApprovedForAll}."
      },
      "name()": {
        "details": "See {IERC721Metadata-name}."
      },
      "ownerOf(uint256)": {
        "details": "See {IERC721-ownerOf}."
      },
      "safeTransferFrom(address,address,uint256)": {
        "details": "See {IERC721-safeTransferFrom}."
      },
      "safeTransferFrom(address,address,uint256,bytes)": {
        "details": "See {IERC721-safeTransferFrom}."
      },
      "setApprovalForAll(address,bool)": {
        "details": "See {IERC721-setApprovalForAll}."
      },
      "supportsInterface(bytes4)": {
        "details": "See {IERC165-supportsInterface}. Time complexity O(1), guaranteed to always use less than 30 000 gas."
      },
      "symbol()": {
        "details": "See {IERC721Metadata-symbol}."
      },
      "tokenByIndex(uint256)": {
        "details": "See {IERC721Enumerable-tokenByIndex}."
      },
      "tokenOfOwnerByIndex(address,uint256)": {
        "details": "See {IERC721Enumerable-tokenOfOwnerByIndex}."
      },
      "tokenURI(uint256)": {
        "details": "See {IERC721Metadata-tokenURI}."
      },
      "totalSupply()": {
        "details": "See {IERC721Enumerable-totalSupply}."
      },
      "transferFrom(address,address,uint256)": {
        "details": "See {IERC721-transferFrom}."
      }
    },
    "version": 1
  },
  "userdoc": {
    "kind": "user",
    "methods": {},
    "version": 1
  }
}