{
  "contractName": "NFTreeDemo",
  "abi": [
    {
      "inputs": [],
      "stateMutability": "nonpayable",
      "type": "constructor"
    },
    {
      "anonymous": false,
      "inputs": [
        {
          "indexed": true,
          "internalType": "address",
          "name": "owner",
          "type": "address"
        },
        {
          "indexed": true,
          "internalType": "address",
          "name": "approved",
          "type": "address"
        },
        {
          "indexed": true,
          "internalType": "uint256",
          "name": "tokenId",
          "type": "uint256"
        }
      ],
      "name": "Approval",
      "type": "event"
    },
    {
      "anonymous": false,
      "inputs": [
        {
          "indexed": true,
          "internalType": "address",
          "name": "owner",
          "type": "address"
        },
        {
          "indexed": true,
          "internalType": "address",
          "name": "operator",
          "type": "address"
        },
        {
          "indexed": false,
          "internalType": "bool",
          "name": "approved",
          "type": "bool"
        }
      ],
      "name": "ApprovalForAll",
      "type": "event"
    },
    {
      "anonymous": false,
      "inputs": [
        {
          "indexed": false,
          "internalType": "uint256",
          "name": "tokenId",
          "type": "uint256"
        }
      ],
      "name": "ChopTree",
      "type": "event"
    },
    {
      "anonymous": false,
      "inputs": [
        {
          "indexed": false,
          "internalType": "uint256",
          "name": "tokenId",
          "type": "uint256"
        },
        {
          "indexed": false,
          "internalType": "address",
          "name": "owner",
          "type": "address"
        }
      ],
      "name": "PlantSeed",
      "type": "event"
    },
    {
      "anonymous": false,
      "inputs": [
        {
          "indexed": true,
          "internalType": "address",
          "name": "from",
          "type": "address"
        },
        {
          "indexed": true,
          "internalType": "address",
          "name": "to",
          "type": "address"
        },
        {
          "indexed": true,
          "internalType": "uint256",
          "name": "tokenId",
          "type": "uint256"
        }
      ],
      "name": "Transfer",
      "type": "event"
    },
    {
      "anonymous": false,
      "inputs": [
        {
          "indexed": false,
          "internalType": "uint256",
          "name": "tokenId",
          "type": "uint256"
        }
      ],
      "name": "WaterTree",
      "type": "event"
    },
    {
      "inputs": [
        {
          "internalType": "address",
          "name": "to",
          "type": "address"
        },
        {
          "internalType": "uint256",
          "name": "tokenId",
          "type": "uint256"
        }
      ],
      "name": "approve",
      "outputs": [],
      "stateMutability": "nonpayable",
      "type": "function"
    },
    {
      "inputs": [
        {
          "internalType": "address",
          "name": "owner",
          "type": "address"
        }
      ],
      "name": "balanceOf",
      "outputs": [
        {
          "internalType": "uint256",
          "name": "",
          "type": "uint256"
        }
      ],
      "stateMutability": "view",
      "type": "function",
      "constant": true
    },
    {
      "inputs": [],
      "name": "baseURI",
      "outputs": [
        {
          "internalType": "string",
          "name": "",
          "type": "string"
        }
      ],
      "stateMutability": "view",
      "type": "function",
      "constant": true
    },
    {
      "inputs": [
        {
          "internalType": "uint256",
          "name": "tokenId",
          "type": "uint256"
        }
      ],
      "name": "getApproved",
      "outputs": [
        {
          "internalType": "address",
          "name": "",
          "type": "address"
        }
      ],
      "stateMutability": "view",
      "type": "function",
      "constant": true
    },
    {
      "inputs": [
        {
          "internalType": "address",
          "name": "owner",
          "type": "address"
        },
        {
          "internalType": "address",
          "name": "operator",
          "type": "address"
        }
      ],
      "name": "isApprovedForAll",
      "outputs": [
        {
          "internalType": "bool",
          "name": "",
          "type": "bool"
        }
      ],
      "stateMutability": "view",
      "type": "function",
      "constant": true
    },
    {
      "inputs": [],
      "name": "name",
      "outputs": [
        {
          "internalType": "string",
          "name": "",
          "type": "string"
        }
      ],
      "stateMutability": "view",
      "type": "function",
      "constant": true
    },
    {
      "inputs": [
        {
          "internalType": "uint256",
          "name": "tokenId",
          "type": "uint256"
        }
      ],
      "name": "ownerOf",
      "outputs": [
        {
          "internalType": "address",
          "name": "",
          "type": "address"
        }
      ],
      "stateMutability": "view",
      "type": "function",
      "constant": true
    },
    {
      "inputs": [
        {
          "internalType": "address",
          "name": "from",
          "type": "address"
        },
        {
          "internalType": "address",
          "name": "to",
          "type": "address"
        },
        {
          "internalType": "uint256",
          "name": "tokenId",
          "type": "uint256"
        }
      ],
      "name": "safeTransferFrom",
      "outputs": [],
      "stateMutability": "nonpayable",
      "type": "function"
    },
    {
      "inputs": [
        {
          "internalType": "address",
          "name": "from",
          "type": "address"
        },
        {
          "internalType": "address",
          "name": "to",
          "type": "address"
        },
        {
          "internalType": "uint256",
          "name": "tokenId",
          "type": "uint256"
        },
        {
          "internalType": "bytes",
          "name": "_data",
          "type": "bytes"
        }
      ],
      "name": "safeTransferFrom",
      "outputs": [],
      "stateMutability": "nonpayable",
      "type": "function"
    },
    {
      "inputs": [
        {
          "internalType": "address",
          "name": "operator",
          "type": "address"
        },
        {
          "internalType": "bool",
          "name": "approved",
          "type": "bool"
        }
      ],
      "name": "setApprovalForAll",
      "outputs": [],
      "stateMutability": "nonpayable",
      "type": "function"
    },
    {
      "inputs": [
        {
          "internalType": "bytes4",
          "name": "interfaceId",
          "type": "bytes4"
        }
      ],
      "name": "supportsInterface",
      "outputs": [
        {
          "internalType": "bool",
          "name": "",
          "type": "bool"
        }
      ],
      "stateMutability": "view",
      "type": "function",
      "constant": true
    },
    {
      "inputs": [],
      "name": "symbol",
      "outputs": [
        {
          "internalType": "string",
          "name": "",
          "type": "string"
        }
      ],
      "stateMutability": "view",
      "type": "function",
      "constant": true
    },
    {
      "inputs": [
        {
          "internalType": "uint256",
          "name": "index",
          "type": "uint256"
        }
      ],
      "name": "tokenByIndex",
      "outputs": [
        {
          "internalType": "uint256",
          "name": "",
          "type": "uint256"
        }
      ],
      "stateMutability": "view",
      "type": "function",
      "constant": true
    },
    {
      "inputs": [
        {
          "internalType": "address",
          "name": "owner",
          "type": "address"
        },
        {
          "internalType": "uint256",
          "name": "index",
          "type": "uint256"
        }
      ],
      "name": "tokenOfOwnerByIndex",
      "outputs": [
        {
          "internalType": "uint256",
          "name": "",
          "type": "uint256"
        }
      ],
      "stateMutability": "view",
      "type": "function",
      "constant": true
    },
    {
      "inputs": [
        {
          "internalType": "uint256",
          "name": "tokenId",
          "type": "uint256"
        }
      ],
      "name": "tokenURI",
      "outputs": [
        {
          "internalType": "string",
          "name": "",
          "type": "string"
        }
      ],
      "stateMutability": "view",
      "type": "function",
      "constant": true
    },
    {
      "inputs": [],
      "name": "totalSupply",
      "outputs": [
        {
          "internalType": "uint256",
          "name": "",
          "type": "uint256"
        }
      ],
      "stateMutability": "view",
      "type": "function",
      "constant": true
    },
    {
      "inputs": [
        {
          "internalType": "address",
          "name": "from",
          "type": "address"
        },
        {
          "internalType": "address",
          "name": "to",
          "type": "address"
        },
        {
          "internalType": "uint256",
          "name": "tokenId",
          "type": "uint256"
        }
      ],
      "name": "transferFrom",
      "outputs": [],
      "stateMutability": "nonpayable",
      "type": "function"
    },
    {
      "inputs": [
        {
          "internalType": "address",
          "name": "owner",
          "type": "address"
        },
        {
          "internalType": "uint256",
          "name": "i",
          "type": "uint256"
        }
      ],
      "name": "tokenIdAt",
      "outputs": [
        {
          "internalType": "uint256",
          "name": "",
          "type": "uint256"
        }
      ],
      "stateMutability": "view",
      "type": "function",
      "constant": true
    },
    {
      "inputs": [
        {
          "internalType": "uint256",
          "name": "tokenId",
          "type": "uint256"
        }
      ],
      "name": "isChopped",
      "outputs": [
        {
          "internalType": "bool",
          "name": "",
          "type": "bool"
        }
      ],
      "stateMutability": "view",
      "type": "function",
      "constant": true
    },
    {
      "inputs": [],
      "name": "plantSeed",
      "outputs": [],
      "stateMutability": "nonpayable",
      "type": "function"
    },
    {
      "inputs": [
        {
          "internalType": "uint256",
          "name": "tokenId",
          "type": "uint256"
        }
      ],
      "name": "waterTree",
      "outputs": [],
      "stateMutability": "nonpayable",
      "type": "function"
    },
    {
      "inputs": [
        {
          "internalType": "uint256",
          "name": "tokenId",
          "type": "uint256"
        }
      ],
      "name": "chopTree",
      "outputs": [],
      "stateMutability": "nonpayable",
      "type": "function"
    }
  ],
  "bytecode": "0x60806040523480156200001157600080fd5b506040518060400160405280600681526020017f4e465472656500000000000000000000000000000000000000000000000000008152506040518060400160405280600681526020017f4e46545245450000000000000000000000000000000000000000000000000000815250620000966301ffc9a760e01b6200015e60201b60201c565b8160069080519060200190620000ae92919062000283565b508060079080519060200190620000c792919062000283565b50620000e06380ac58cd60e01b6200015e60201b60201c565b620000f8635b5e139f60e01b6200015e60201b60201c565b6200011063780e9d6360e01b6200015e60201b60201c565b5050620001586040518060400160405280601f81526020017f68747470733a2f2f6e6674726565746f6b656e2e636f6d2f6e66747265652f008152506200026760201b60201c565b62000329565b63ffffffff60e01b817bffffffffffffffffffffffffffffffffffffffffffffffffffffffff19161415620001fb576040517f08c379a000000000000000000000000000000000000000000000000000000000815260040180806020018281038252601c8152602001807f4552433136353a20696e76616c696420696e746572666163652069640000000081525060200191505060405180910390fd5b6001600080837bffffffffffffffffffffffffffffffffffffffffffffffffffffffff19167bffffffffffffffffffffffffffffffffffffffffffffffffffffffff1916815260200190815260200160002060006101000a81548160ff02191690831515021790555050565b80600990805190602001906200027f92919062000283565b5050565b828054600181600116156101000203166002900490600052602060002090601f016020900481019282601f10620002c657805160ff1916838001178555620002f7565b82800160010185558215620002f7579182015b82811115620002f6578251825591602001919060010190620002d9565b5b5090506200030691906200030a565b5090565b5b80821115620003255760008160009055506001016200030b565b5090565b612e3580620003396000396000f3fe608060405234801561001057600080fd5b50600436106101425760003560e01c80636efa12b1116100b8578063998b723b1161007c578063998b723b146106d7578063a22cb46514610705578063b88d4fde14610755578063b9e6528f1461085a578063c87b56dd14610888578063e985e9c51461092f57610142565b80636efa12b11461054c57806370a08231146105ae57806374119a38146106065780639556b5941461061057806395d89b411461065457610142565b806323b872dd1161010a57806323b872dd146102f15780632f745c591461035f57806342842e0e146103c15780634f6ccce71461042f5780636352211e146104715780636c0360eb146104c957610142565b806301ffc9a71461014757806306fdde03146101aa578063081812fc1461022d578063095ea7b31461028557806318160ddd146102d3575b600080fd5b6101926004803603602081101561015d57600080fd5b8101908080357bffffffffffffffffffffffffffffffffffffffffffffffffffffffff191690602001909291905050506109a9565b60405180821515815260200191505060405180910390f35b6101b2610a10565b6040518080602001828103825283818151815260200191508051906020019080838360005b838110156101f25780820151818401526020810190506101d7565b50505050905090810190601f16801561021f5780820380516001836020036101000a031916815260200191505b509250505060405180910390f35b6102596004803603602081101561024357600080fd5b8101908080359060200190929190505050610ab2565b604051808273ffffffffffffffffffffffffffffffffffffffff16815260200191505060405180910390f35b6102d16004803603604081101561029b57600080fd5b81019080803573ffffffffffffffffffffffffffffffffffffffff16906020019092919080359060200190929190505050610b4d565b005b6102db610c91565b6040518082815260200191505060405180910390f35b61035d6004803603606081101561030757600080fd5b81019080803573ffffffffffffffffffffffffffffffffffffffff169060200190929190803573ffffffffffffffffffffffffffffffffffffffff16906020019092919080359060200190929190505050610ca2565b005b6103ab6004803603604081101561037557600080fd5b81019080803573ffffffffffffffffffffffffffffffffffffffff16906020019092919080359060200190929190505050610d18565b6040518082815260200191505060405180910390f35b61042d600480360360608110156103d757600080fd5b81019080803573ffffffffffffffffffffffffffffffffffffffff169060200190929190803573ffffffffffffffffffffffffffffffffffffffff16906020019092919080359060200190929190505050610d73565b005b61045b6004803603602081101561044557600080fd5b8101908080359060200190929190505050610d93565b6040518082815260200191505060405180910390f35b61049d6004803603602081101561048757600080fd5b8101908080359060200190929190505050610db6565b604051808273ffffffffffffffffffffffffffffffffffffffff16815260200191505060405180910390f35b6104d1610ded565b6040518080602001828103825283818151815260200191508051906020019080838360005b838110156105115780820151818401526020810190506104f6565b50505050905090810190601f16801561053e5780820380516001836020036101000a031916815260200191505b509250505060405180910390f35b6105986004803603604081101561056257600080fd5b81019080803573ffffffffffffffffffffffffffffffffffffffff16906020019092919080359060200190929190505050610e8f565b6040518082815260200191505060405180910390f35b6105f0600480360360208110156105c457600080fd5b81019080803573ffffffffffffffffffffffffffffffffffffffff169060200190929190505050610eea565b6040518082815260200191505060405180910390f35b61060e610fbf565b005b61063c6004803603602081101561062657600080fd5b8101908080359060200190929190505050611098565b60405180821515815260200191505060405180910390f35b61065c6110c2565b6040518080602001828103825283818151815260200191508051906020019080838360005b8381101561069c578082015181840152602081019050610681565b50505050905090810190601f1680156106c95780820380516001836020036101000a031916815260200191505b509250505060405180910390f35b610703600480360360208110156106ed57600080fd5b8101908080359060200190929190505050611164565b005b6107536004803603604081101561071b57600080fd5b81019080803573ffffffffffffffffffffffffffffffffffffffff16906020019092919080351515906020019092919050505061119e565b005b6108586004803603608081101561076b57600080fd5b81019080803573ffffffffffffffffffffffffffffffffffffffff169060200190929190803573ffffffffffffffffffffffffffffffffffffffff16906020019092919080359060200190929190803590602001906401000000008111156107d257600080fd5b8201836020820111156107e457600080fd5b8035906020019184600183028401116401000000008311171561080657600080fd5b91908080601f016020809104026020016040519081016040528093929190818152602001838380828437600081840152601f19601f820116905080830192505050505050509192919290505050611354565b005b6108866004803603602081101561087057600080fd5b81019080803590602001909291905050506113cc565b005b6108b46004803603602081101561089e57600080fd5b8101908080359060200190929190505050611532565b6040518080602001828103825283818151815260200191508051906020019080838360005b838110156108f45780820151818401526020810190506108d9565b50505050905090810190601f1680156109215780820380516001836020036101000a031916815260200191505b509250505060405180910390f35b6109916004803603604081101561094557600080fd5b81019080803573ffffffffffffffffffffffffffffffffffffffff169060200190929190803573ffffffffffffffffffffffffffffffffffffffff169060200190929190505050611803565b60405180821515815260200191505060405180910390f35b6000806000837bffffffffffffffffffffffffffffffffffffffffffffffffffffffff19167bffffffffffffffffffffffffffffffffffffffffffffffffffffffff1916815260200190815260200160002060009054906101000a900460ff169050919050565b606060068054600181600116156101000203166002900480601f016020809104026020016040519081016040528092919081815260200182805460018160011615610100020316600290048015610aa85780601f10610a7d57610100808354040283529160200191610aa8565b820191906000526020600020905b815481529060010190602001808311610a8b57829003601f168201915b5050505050905090565b6000610abd82611897565b610b12576040517f08c379a000000000000000000000000000000000000000000000000000000000815260040180806020018281038252602c815260200180612d2a602c913960400191505060405180910390fd5b6004600083815260200190815260200160002060009054906101000a900473ffffffffffffffffffffffffffffffffffffffff169050919050565b6000610b5882610db6565b90508073ffffffffffffffffffffffffffffffffffffffff168373ffffffffffffffffffffffffffffffffffffffff161415610bdf576040517f08c379a0000000000000000000000000000000000000000000000000000000008152600401808060200182810382526021815260200180612dae6021913960400191505060405180910390fd5b8073ffffffffffffffffffffffffffffffffffffffff16610bfe6118b4565b73ffffffffffffffffffffffffffffffffffffffff161480610c2d5750610c2c81610c276118b4565b611803565b5b610c82576040517f08c379a0000000000000000000000000000000000000000000000000000000008152600401808060200182810382526038815260200180612c7d6038913960400191505060405180910390fd5b610c8c83836118bc565b505050565b6000610c9d6002611975565b905090565b610cb3610cad6118b4565b8261198a565b610d08576040517f08c379a0000000000000000000000000000000000000000000000000000000008152600401808060200182810382526031815260200180612dcf6031913960400191505060405180910390fd5b610d13838383611a7e565b505050565b6000610d6b82600160008673ffffffffffffffffffffffffffffffffffffffff1673ffffffffffffffffffffffffffffffffffffffff168152602001908152602001600020611cc190919063ffffffff16565b905092915050565b610d8e83838360405180602001604052806000815250611354565b505050565b600080610daa836002611cdb90919063ffffffff16565b50905080915050919050565b6000610de682604051806060016040528060298152602001612cdf602991396002611d079092919063ffffffff16565b9050919050565b606060098054600181600116156101000203166002900480601f016020809104026020016040519081016040528092919081815260200182805460018160011615610100020316600290048015610e855780601f10610e5a57610100808354040283529160200191610e85565b820191906000526020600020905b815481529060010190602001808311610e6857829003601f168201915b5050505050905090565b6000610ee282600b60008673ffffffffffffffffffffffffffffffffffffffff1673ffffffffffffffffffffffffffffffffffffffff168152602001908152602001600020611cc190919063ffffffff16565b905092915050565b60008073ffffffffffffffffffffffffffffffffffffffff168273ffffffffffffffffffffffffffffffffffffffff161415610f71576040517f08c379a000000000000000000000000000000000000000000000000000000000815260040180806020018281038252602a815260200180612cb5602a913960400191505060405180910390fd5b610fb8600160008473ffffffffffffffffffffffffffffffffffffffff1673ffffffffffffffffffffffffffffffffffffffff168152602001908152602001600020611d26565b9050919050565b6000610fc96118b4565b9050610fd5600a611d3b565b6000610fe1600a611d51565b905061103481600b60008573ffffffffffffffffffffffffffffffffffffffff1673ffffffffffffffffffffffffffffffffffffffff168152602001908152602001600020611d5f90919063ffffffff16565b5061103f8282611d79565b7fa6c299ac35fd276e1b719175c2a77c155ea2d7e62df441f522ed7aaf90f9dc6b8183604051808381526020018273ffffffffffffffffffffffffffffffffffffffff1681526020019250505060405180910390a15050565b6000600c600083815260200190815260200160002060009054906101000a900460ff169050919050565b606060078054600181600116156101000203166002900480601f01602080910402602001604051908101604052809291908181526020018280546001816001161561010002031660029004801561115a5780601f1061112f5761010080835404028352916020019161115a565b820191906000526020600020905b81548152906001019060200180831161113d57829003601f168201915b5050505050905090565b7f1777616fca9f5e57141348d0ef81ca58baa361d536dacdc5a4c9a6fb836471bd816040518082815260200191505060405180910390a150565b6111a66118b4565b73ffffffffffffffffffffffffffffffffffffffff168273ffffffffffffffffffffffffffffffffffffffff161415611247576040517f08c379a00000000000000000000000000000000000000000000000000000000081526004018080602001828103825260198152602001807f4552433732313a20617070726f766520746f2063616c6c65720000000000000081525060200191505060405180910390fd5b80600560006112546118b4565b73ffffffffffffffffffffffffffffffffffffffff1673ffffffffffffffffffffffffffffffffffffffff16815260200190815260200160002060008473ffffffffffffffffffffffffffffffffffffffff1673ffffffffffffffffffffffffffffffffffffffff16815260200190815260200160002060006101000a81548160ff0219169083151502179055508173ffffffffffffffffffffffffffffffffffffffff166113016118b4565b73ffffffffffffffffffffffffffffffffffffffff167f17307eab39ab6107e8899845ad3d59bd9653f200f220920489ca2b5937696c318360405180821515815260200191505060405180910390a35050565b61136561135f6118b4565b8361198a565b6113ba576040517f08c379a0000000000000000000000000000000000000000000000000000000008152600401808060200182810382526031815260200180612dcf6031913960400191505060405180910390fd5b6113c684848484611d97565b50505050565b60006113d66118b4565b90506113e2818361198a565b611437576040517f08c379a0000000000000000000000000000000000000000000000000000000008152600401808060200182810382526028815260200180612c036028913960400191505060405180910390fd5b600c600083815260200190815260200160002060009054906101000a900460ff16156114cb576040517f08c379a000000000000000000000000000000000000000000000000000000000815260040180806020018281038252601f8152602001807f4e46547265653a207472656520697320616c72656164792063686f707065640081525060200191505060405180910390fd5b6001600c600084815260200190815260200160002060006101000a81548160ff0219169083151502179055507f11e756e2d91ca7bdfe879864e8dfb91a62fab8f0e8cc8363cedf8d3cf41e524e826040518082815260200191505060405180910390a15050565b606061153d82611897565b611592576040517f08c379a000000000000000000000000000000000000000000000000000000000815260040180806020018281038252602f815260200180612d7f602f913960400191505060405180910390fd5b6060600860008481526020019081526020016000208054600181600116156101000203166002900480601f01602080910402602001604051908101604052809291908181526020018280546001816001161561010002031660029004801561163b5780601f106116105761010080835404028352916020019161163b565b820191906000526020600020905b81548152906001019060200180831161161e57829003601f168201915b50505050509050606061164c610ded565b90506000815114156116625781925050506117fe565b6000825111156117335780826040516020018083805190602001908083835b602083106116a45780518252602082019150602081019050602083039250611681565b6001836020036101000a03801982511681845116808217855250505050505090500182805190602001908083835b602083106116f557805182526020820191506020810190506020830392506116d2565b6001836020036101000a03801982511681845116808217855250505050505090500192505050604051602081830303815290604052925050506117fe565b8061173d85611e09565b6040516020018083805190602001908083835b602083106117735780518252602082019150602081019050602083039250611750565b6001836020036101000a03801982511681845116808217855250505050505090500182805190602001908083835b602083106117c457805182526020820191506020810190506020830392506117a1565b6001836020036101000a03801982511681845116808217855250505050505090500192505050604051602081830303815290604052925050505b919050565b6000600560008473ffffffffffffffffffffffffffffffffffffffff1673ffffffffffffffffffffffffffffffffffffffff16815260200190815260200160002060008373ffffffffffffffffffffffffffffffffffffffff1673ffffffffffffffffffffffffffffffffffffffff16815260200190815260200160002060009054906101000a900460ff16905092915050565b60006118ad826002611f5090919063ffffffff16565b9050919050565b600033905090565b816004600083815260200190815260200160002060006101000a81548173ffffffffffffffffffffffffffffffffffffffff021916908373ffffffffffffffffffffffffffffffffffffffff160217905550808273ffffffffffffffffffffffffffffffffffffffff1661192f83610db6565b73ffffffffffffffffffffffffffffffffffffffff167f8c5be1e5ebec7d5bd14f71427d1e84f3dd0314c0f7b2291e5b200ac8c7c3b92560405160405180910390a45050565b600061198382600001611f6a565b9050919050565b600061199582611897565b6119ea576040517f08c379a000000000000000000000000000000000000000000000000000000000815260040180806020018281038252602c815260200180612c51602c913960400191505060405180910390fd5b60006119f583610db6565b90508073ffffffffffffffffffffffffffffffffffffffff168473ffffffffffffffffffffffffffffffffffffffff161480611a6457508373ffffffffffffffffffffffffffffffffffffffff16611a4c84610ab2565b73ffffffffffffffffffffffffffffffffffffffff16145b80611a755750611a748185611803565b5b91505092915050565b8273ffffffffffffffffffffffffffffffffffffffff16611a9e82610db6565b73ffffffffffffffffffffffffffffffffffffffff1614611b0a576040517f08c379a0000000000000000000000000000000000000000000000000000000008152600401808060200182810382526029815260200180612d566029913960400191505060405180910390fd5b600073ffffffffffffffffffffffffffffffffffffffff168273ffffffffffffffffffffffffffffffffffffffff161415611b90576040517f08c379a0000000000000000000000000000000000000000000000000000000008152600401808060200182810382526024815260200180612bdf6024913960400191505060405180910390fd5b611b9b838383611f7b565b611ba66000826118bc565b611bf781600160008673ffffffffffffffffffffffffffffffffffffffff1673ffffffffffffffffffffffffffffffffffffffff168152602001908152602001600020611f8090919063ffffffff16565b50611c4981600160008573ffffffffffffffffffffffffffffffffffffffff1673ffffffffffffffffffffffffffffffffffffffff168152602001908152602001600020611d5f90919063ffffffff16565b50611c6081836002611f9a9092919063ffffffff16565b50808273ffffffffffffffffffffffffffffffffffffffff168473ffffffffffffffffffffffffffffffffffffffff167fddf252ad1be2c89b69c2b068fc378daa952ba7f163c4a11628f55a4df523b3ef60405160405180910390a4505050565b6000611cd08360000183611fcf565b60001c905092915050565b600080600080611cee8660000186612052565b915091508160001c8160001c9350935050509250929050565b6000611d1a846000018460001b846120eb565b60001c90509392505050565b6000611d34826000016121e1565b9050919050565b6001816000016000828254019250508190555050565b600081600001549050919050565b6000611d71836000018360001b6121f2565b905092915050565b611d93828260405180602001604052806000815250612262565b5050565b611da2848484611a7e565b611dae848484846122d3565b611e03576040517f08c379a0000000000000000000000000000000000000000000000000000000008152600401808060200182810382526032815260200180612bad6032913960400191505060405180910390fd5b50505050565b60606000821415611e51576040518060400160405280600181526020017f30000000000000000000000000000000000000000000000000000000000000008152509050611f4b565b600082905060005b60008214611e7b578080600101915050600a8281611e7357fe5b049150611e59565b60608167ffffffffffffffff81118015611e9457600080fd5b506040519080825280601f01601f191660200182016040528015611ec75781602001600182028036833780820191505090505b50905060006001830390508593505b60008414611f4357600a8481611ee857fe5b0660300160f81b82828060019003935081518110611f0257fe5b60200101907effffffffffffffffffffffffffffffffffffffffffffffffffffffffffffff1916908160001a905350600a8481611f3b57fe5b049350611ed6565b819450505050505b919050565b6000611f62836000018360001b6124ec565b905092915050565b600081600001805490509050919050565b505050565b6000611f92836000018360001b61250f565b905092915050565b6000611fc6846000018460001b8473ffffffffffffffffffffffffffffffffffffffff1660001b6125f7565b90509392505050565b600081836000018054905011612030576040517f08c379a0000000000000000000000000000000000000000000000000000000008152600401808060200182810382526022815260200180612b8b6022913960400191505060405180910390fd5b82600001828154811061203f57fe5b9060005260206000200154905092915050565b600080828460000180549050116120b4576040517f08c379a0000000000000000000000000000000000000000000000000000000008152600401808060200182810382526022815260200180612d086022913960400191505060405180910390fd5b60008460000184815481106120c557fe5b906000526020600020906002020190508060000154816001015492509250509250929050565b600080846001016000858152602001908152602001600020549050600081141583906121b2576040517f08c379a00000000000000000000000000000000000000000000000000000000081526004018080602001828103825283818151815260200191508051906020019080838360005b8381101561217757808201518184015260208101905061215c565b50505050905090810190601f1680156121a45780820380516001836020036101000a031916815260200191505b509250505060405180910390fd5b508460000160018203815481106121c557fe5b9060005260206000209060020201600101549150509392505050565b600081600001805490509050919050565b60006121fe83836126d3565b61225757826000018290806001815401808255809150506001900390600052602060002001600090919091909150558260000180549050836001016000848152602001908152602001600020819055506001905061225c565b600090505b92915050565b61226c83836126f6565b61227960008484846122d3565b6122ce576040517f08c379a0000000000000000000000000000000000000000000000000000000008152600401808060200182810382526032815260200180612bad6032913960400191505060405180910390fd5b505050565b60006122f48473ffffffffffffffffffffffffffffffffffffffff166128ea565b61230157600190506124e4565b606061246b63150b7a0260e01b6123166118b4565b888787604051602401808573ffffffffffffffffffffffffffffffffffffffff1681526020018473ffffffffffffffffffffffffffffffffffffffff16815260200183815260200180602001828103825283818151815260200191508051906020019080838360005b8381101561239a57808201518184015260208101905061237f565b50505050905090810190601f1680156123c75780820380516001836020036101000a031916815260200191505b5095505050505050604051602081830303815290604052907bffffffffffffffffffffffffffffffffffffffffffffffffffffffff19166020820180517bffffffffffffffffffffffffffffffffffffffffffffffffffffffff8381831617835250505050604051806060016040528060328152602001612bad603291398773ffffffffffffffffffffffffffffffffffffffff166128fd9092919063ffffffff16565b9050600081806020019051602081101561248457600080fd5b8101908080519060200190929190505050905063150b7a0260e01b7bffffffffffffffffffffffffffffffffffffffffffffffffffffffff1916817bffffffffffffffffffffffffffffffffffffffffffffffffffffffff191614925050505b949350505050565b600080836001016000848152602001908152602001600020541415905092915050565b600080836001016000848152602001908152602001600020549050600081146125eb576000600182039050600060018660000180549050039050600086600001828154811061255a57fe5b906000526020600020015490508087600001848154811061257757fe5b90600052602060002001819055506001830187600101600083815260200190815260200160002081905550866000018054806125af57fe5b600190038181906000526020600020016000905590558660010160008781526020019081526020016000206000905560019450505050506125f1565b60009150505b92915050565b600080846001016000858152602001908152602001600020549050600081141561269e578460000160405180604001604052808681526020018581525090806001815401808255809150506001900390600052602060002090600202016000909190919091506000820151816000015560208201518160010155505084600001805490508560010160008681526020019081526020016000208190555060019150506126cc565b828560000160018303815481106126b157fe5b90600052602060002090600202016001018190555060009150505b9392505050565b600080836001016000848152602001908152602001600020541415905092915050565b600073ffffffffffffffffffffffffffffffffffffffff168273ffffffffffffffffffffffffffffffffffffffff161415612799576040517f08c379a00000000000000000000000000000000000000000000000000000000081526004018080602001828103825260208152602001807f4552433732313a206d696e7420746f20746865207a65726f206164647265737381525060200191505060405180910390fd5b6127a281611897565b15612815576040517f08c379a000000000000000000000000000000000000000000000000000000000815260040180806020018281038252601c8152602001807f4552433732313a20746f6b656e20616c7265616479206d696e7465640000000081525060200191505060405180910390fd5b61282160008383611f7b565b61287281600160008573ffffffffffffffffffffffffffffffffffffffff1673ffffffffffffffffffffffffffffffffffffffff168152602001908152602001600020611d5f90919063ffffffff16565b5061288981836002611f9a9092919063ffffffff16565b50808273ffffffffffffffffffffffffffffffffffffffff16600073ffffffffffffffffffffffffffffffffffffffff167fddf252ad1be2c89b69c2b068fc378daa952ba7f163c4a11628f55a4df523b3ef60405160405180910390a45050565b600080823b905060008111915050919050565b606061290c8484600085612915565b90509392505050565b606082471015612970576040517f08c379a0000000000000000000000000000000000000000000000000000000008152600401808060200182810382526026815260200180612c2b6026913960400191505060405180910390fd5b612979856128ea565b6129eb576040517f08c379a000000000000000000000000000000000000000000000000000000000815260040180806020018281038252601d8152602001807f416464726573733a2063616c6c20746f206e6f6e2d636f6e747261637400000081525060200191505060405180910390fd5b600060608673ffffffffffffffffffffffffffffffffffffffff1685876040518082805190602001908083835b60208310612a3b5780518252602082019150602081019050602083039250612a18565b6001836020036101000a03801982511681845116808217855250505050505090500191505060006040518083038185875af1925050503d8060008114612a9d576040519150601f19603f3d011682016040523d82523d6000602084013e612aa2565b606091505b5091509150612ab2828286612abe565b92505050949350505050565b60608315612ace57829050612b83565b600083511115612ae15782518084602001fd5b816040517f08c379a00000000000000000000000000000000000000000000000000000000081526004018080602001828103825283818151815260200191508051906020019080838360005b83811015612b48578082015181840152602081019050612b2d565b50505050905090810190601f168015612b755780820380516001836020036101000a031916815260200191505b509250505060405180910390fd5b939250505056fe456e756d657261626c655365743a20696e646578206f7574206f6620626f756e64734552433732313a207472616e7366657220746f206e6f6e20455243373231526563656976657220696d706c656d656e7465724552433732313a207472616e7366657220746f20746865207a65726f20616464726573734e46547265653a2063616c6c6572206973206e6f74206f776e6572206e6f7220617070726f766564416464726573733a20696e73756666696369656e742062616c616e636520666f722063616c6c4552433732313a206f70657261746f7220717565727920666f72206e6f6e6578697374656e7420746f6b656e4552433732313a20617070726f76652063616c6c6572206973206e6f74206f776e6572206e6f7220617070726f76656420666f7220616c6c4552433732313a2062616c616e636520717565727920666f7220746865207a65726f20616464726573734552433732313a206f776e657220717565727920666f72206e6f6e6578697374656e7420746f6b656e456e756d657261626c654d61703a20696e646578206f7574206f6620626f756e64734552433732313a20617070726f76656420717565727920666f72206e6f6e6578697374656e7420746f6b656e4552433732313a207472616e73666572206f6620746f6b656e2074686174206973206e6f74206f776e4552433732314d657461646174613a2055524920717565727920666f72206e6f6e6578697374656e7420746f6b656e4552433732313a20617070726f76616c20746f2063757272656e74206f776e65724552433732313a207472616e736665722063616c6c6572206973206e6f74206f776e6572206e6f7220617070726f766564a264697066735822122023c12ff42357539e4e5e3f31c1afdfffc0034817d3ab7692b1085d4f2197047664736f6c634300060c0033",
  "immutableReferences": {},
  "source": "// SPDX-License-Identifier: MIT\npragma solidity 0.6.12;\n\nimport \"@openzeppelin/contracts/token/ERC721/ERC721.sol\";\nimport \"@openzeppelin/contracts/utils/Counters.sol\";\nimport \"@openzeppelin/contracts/utils/EnumerableSet.sol\";\n\ncontract NFTreeDemo is ERC721 {\n  using Counters for Counters.Counter;\n  using EnumerableSet for EnumerableSet.UintSet;\n\n  event PlantSeed(uint256 tokenId, address owner);\n  event WaterTree(uint256 tokenId);\n  event ChopTree(uint256 tokenId);\n\n  Counters.Counter private _idCounter;\n  mapping (address => EnumerableSet.UintSet) private _ownerMap;\n  mapping (uint256 => bool) private _choppedMap;\n\n  constructor() public ERC721(\"NFTree\", \"NFTREE\") {\n    _setBaseURI(\"https://nftreetoken.com/nftree/\");\n  }\n\n  function tokenIdAt(address owner, uint i)\n    external\n    view\n    returns (uint)\n  {\n    return _ownerMap[owner].at(i);\n  }\n\n  function isChopped(uint256 tokenId)\n    external\n    view\n    returns (bool)\n  {\n    return _choppedMap[tokenId];\n  }\n\n  function plantSeed()\n    external\n  {\n    address owner = _msgSender();\n\n    _idCounter.increment();\n    uint256 tokenId = _idCounter.current();\n\n    _ownerMap[owner].add(tokenId);\n    _safeMint(owner, tokenId);\n\n    PlantSeed(tokenId, owner);\n  }\n\n  function waterTree(uint256 tokenId)\n    external\n  {\n    WaterTree(tokenId);\n  }\n\n  function chopTree(uint256 tokenId)\n    external\n  {\n    address payable owner = _msgSender();\n    require(\n      _isApprovedOrOwner(owner, tokenId),\n      \"NFTree: caller is not owner nor approved\"\n    );\n\n    require(\n      !_choppedMap[tokenId],\n      \"NFTree: tree is already chopped\"\n    );\n\n    _choppedMap[tokenId] = true;\n    ChopTree(tokenId);\n  }\n}\n",
  "sourcePath": "/Users/jaschaephraim/dev/github.com/jaschaephraim/nftree/packages/nftree-contracts/contracts/NFTreeDemo.sol",
  "compiler": {
    "name": "solc",
    "version": "0.6.12+commit.27d51765.Emscripten.clang"
  },
  "schemaVersion": "3.3.4",
  "updatedAt": "2021-03-21T10:36:29.588Z",
  "networkType": "ethereum",
  "devdoc": {
    "kind": "dev",
    "methods": {
      "approve(address,uint256)": {
        "details": "See {IERC721-approve}."
      },
      "balanceOf(address)": {
        "details": "See {IERC721-balanceOf}."
      },
      "baseURI()": {
        "details": "Returns the base URI set via {_setBaseURI}. This will be automatically added as a prefix in {tokenURI} to each token's URI, or to the token ID if no specific URI is set for that token ID."
      },
      "getApproved(uint256)": {
        "details": "See {IERC721-getApproved}."
      },
      "isApprovedForAll(address,address)": {
        "details": "See {IERC721-isApprovedForAll}."
      },
      "name()": {
        "details": "See {IERC721Metadata-name}."
      },
      "ownerOf(uint256)": {
        "details": "See {IERC721-ownerOf}."
      },
      "safeTransferFrom(address,address,uint256)": {
        "details": "See {IERC721-safeTransferFrom}."
      },
      "safeTransferFrom(address,address,uint256,bytes)": {
        "details": "See {IERC721-safeTransferFrom}."
      },
      "setApprovalForAll(address,bool)": {
        "details": "See {IERC721-setApprovalForAll}."
      },
      "supportsInterface(bytes4)": {
        "details": "See {IERC165-supportsInterface}. Time complexity O(1), guaranteed to always use less than 30 000 gas."
      },
      "symbol()": {
        "details": "See {IERC721Metadata-symbol}."
      },
      "tokenByIndex(uint256)": {
        "details": "See {IERC721Enumerable-tokenByIndex}."
      },
      "tokenOfOwnerByIndex(address,uint256)": {
        "details": "See {IERC721Enumerable-tokenOfOwnerByIndex}."
      },
      "tokenURI(uint256)": {
        "details": "See {IERC721Metadata-tokenURI}."
      },
      "totalSupply()": {
        "details": "See {IERC721Enumerable-totalSupply}."
      },
      "transferFrom(address,address,uint256)": {
        "details": "See {IERC721-transferFrom}."
      }
    },
    "version": 1
  },
  "userdoc": {
    "kind": "user",
    "methods": {},
    "version": 1
  }
}